{
  "contractName": "ExchangeRateRecorder",
  "abi": [
    {
      "inputs": [],
      "stateMutability": "nonpayable",
      "type": "constructor"
    },
    {
      "inputs": [],
      "name": "wldEthRate",
      "outputs": [
        {
          "internalType": "uint256",
          "name": "",
          "type": "uint256"
        }
      ],
      "stateMutability": "view",
      "type": "function",
      "constant": true
    },
    {
      "inputs": [],
      "name": "updateWldEthRate",
      "outputs": [],
      "stateMutability": "nonpayable",
      "type": "function"
    }
  ],
  "bytecode": "0x608060405234801561000f575f80fd5b5073c3d7ba4234995543188278e51837f1c27b89e3315f806101000a81548173ffffffffffffffffffffffffffffffffffffffff021916908373ffffffffffffffffffffffffffffffffffffffff1602179055507361ec26aa57019c486b10502285c5a3d4a4750ad760015f6101000a81548173ffffffffffffffffffffffffffffffffffffffff021916908373ffffffffffffffffffffffffffffffffffffffff1602179055505f6002819055506103ae806100cb5f395ff3fe608060405234801561000f575f80fd5b5060043610610034575f3560e01c806329fb52c514610038578063652f791914610042575b5f80fd5b610040610060565b005b61004a6100e1565b604051610057919061017d565b60405180910390f35b5f6100895f8054906101000a900473ffffffffffffffffffffffffffffffffffffffff166100e7565b90505f6100b660015f9054906101000a900473ffffffffffffffffffffffffffffffffffffffff166100e7565b905080670de0b6b3a7640000836100cd91906101c3565b6100d79190610231565b6002819055505050565b60025481565b5f808273ffffffffffffffffffffffffffffffffffffffff1663feaf968c6040518163ffffffff1660e01b815260040160a060405180830381865afa158015610132573d5f803e3d5ffd5b505050506040513d601f19601f820116820180604052508101906101569190610301565b50505091505080915050919050565b5f819050919050565b61017781610165565b82525050565b5f6020820190506101905f83018461016e565b92915050565b7f4e487b71000000000000000000000000000000000000000000000000000000005f52601160045260245ffd5b5f6101cd82610165565b91506101d883610165565b92508282026101e681610165565b915082820484148315176101fd576101fc610196565b5b5092915050565b7f4e487b71000000000000000000000000000000000000000000000000000000005f52601260045260245ffd5b5f61023b82610165565b915061024683610165565b92508261025657610255610204565b5b828204905092915050565b5f80fd5b5f69ffffffffffffffffffff82169050919050565b61028381610265565b811461028d575f80fd5b50565b5f8151905061029e8161027a565b92915050565b5f819050919050565b6102b6816102a4565b81146102c0575f80fd5b50565b5f815190506102d1816102ad565b92915050565b6102e081610165565b81146102ea575f80fd5b50565b5f815190506102fb816102d7565b92915050565b5f805f805f60a0868803121561031a57610319610261565b5b5f61032788828901610290565b9550506020610338888289016102c3565b9450506040610349888289016102ed565b935050606061035a888289016102ed565b925050608061036b88828901610290565b915050929550929590935056fea2646970667358221220495dfab85332697d2c2b12af8eb759d629b9c6a80f243522977ae9dc2af2934a64736f6c63430008150033",
  "immutableReferences": {},
  "source": "// SPDX-License-Identifier: MIT\npragma solidity ^0.8.0;\n\nimport \"@chainlink/contracts/src/v0.8/interfaces/AggregatorV3Interface.sol\";\n\ncontract ExchangeRateRecorder {\n    AggregatorV3Interface internal wldUsdPriceFeed;\n    AggregatorV3Interface internal ethUsdPriceFeed;\n\n    uint256 public wldEthRate; // WLDETH\n\n    constructor() {\n        wldUsdPriceFeed = AggregatorV3Interface(0xC3D7ba4234995543188278E51837F1C27b89E331);\n        ethUsdPriceFeed = AggregatorV3Interface(0x61Ec26aA57019C486B10502285c5A3D4A4750AD7);\n        wldEthRate = 0; // 0\n    }\n\n    // WLDETH\n    function updateWldEthRate() public {\n        int wldUsdPrice = getLatestPrice(wldUsdPriceFeed);\n        int ethUsdPrice = getLatestPrice(ethUsdPriceFeed);\n\n        // \n        wldEthRate = (uint256(wldUsdPrice) * 1e18) / uint256(ethUsdPrice);\n    }\n\n    // \n    function getLatestPrice(AggregatorV3Interface priceFeed) private view returns (int) {\n        (,int price,,,) = priceFeed.latestRoundData();\n        return price;\n    }\n}\n",
  "sourcePath": "/home/konaito/Documents/ETHGlobal-London/contract/truffle/contracts/ExchangeRateRecorder.sol",
  "compiler": {
    "name": "solc",
    "version": "0.8.21+commit.d9974bed.Emscripten.clang"
  },
  "schemaVersion": "3.4.16",
  "updatedAt": "2024-03-16T15:44:46.608Z",
  "networkType": "ethereum",
  "devdoc": {
    "kind": "dev",
    "methods": {},
    "version": 1
  },
  "userdoc": {
    "kind": "user",
    "methods": {},
    "version": 1
  }
}