{
  "contractName": "GasPaidTransfer",
  "abi": [
    {
      "anonymous": false,
      "inputs": [
        {
          "indexed": true,
          "internalType": "address",
          "name": "from",
          "type": "address"
        },
        {
          "indexed": true,
          "internalType": "address",
          "name": "to",
          "type": "address"
        },
        {
          "indexed": false,
          "internalType": "uint256",
          "name": "amount",
          "type": "uint256"
        }
      ],
      "name": "Transfer",
      "type": "event"
    },
    {
      "inputs": [
        {
          "internalType": "address",
          "name": "",
          "type": "address"
        }
      ],
      "name": "balances",
      "outputs": [
        {
          "internalType": "uint256",
          "name": "",
          "type": "uint256"
        }
      ],
      "stateMutability": "view",
      "type": "function",
      "constant": true
    },
    {
      "inputs": [],
      "name": "deposit",
      "outputs": [],
      "stateMutability": "payable",
      "type": "function",
      "payable": true
    },
    {
      "inputs": [
        {
          "internalType": "address",
          "name": "to",
          "type": "address"
        },
        {
          "internalType": "uint256",
          "name": "amount",
          "type": "uint256"
        }
      ],
      "name": "transfer",
      "outputs": [],
      "stateMutability": "nonpayable",
      "type": "function"
    }
  ],
  "bytecode": "0x608060405234801561000f575f80fd5b506106df8061001d5f395ff3fe608060405260043610610033575f3560e01c806327e235e314610037578063a9059cbb14610073578063d0e30db01461009b575b5f80fd5b348015610042575f80fd5b5061005d60048036038101906100589190610431565b6100a5565b60405161006a9190610474565b60405180910390f35b34801561007e575f80fd5b50610099600480360381019061009491906104b7565b6100b9565b005b6100a361037f565b005b5f602052805f5260405f205f915090505481565b805f803373ffffffffffffffffffffffffffffffffffffffff1673ffffffffffffffffffffffffffffffffffffffff1681526020019081526020015f20541015610138576040517f08c379a000000000000000000000000000000000000000000000000000000000815260040161012f9061054f565b60405180910390fd5b805f803373ffffffffffffffffffffffffffffffffffffffff1673ffffffffffffffffffffffffffffffffffffffff1681526020019081526020015f205f828254610183919061059a565b92505081905550805f808473ffffffffffffffffffffffffffffffffffffffff1673ffffffffffffffffffffffffffffffffffffffff1681526020019081526020015f205f8282546101d591906105cd565b925050819055505f5a90508273ffffffffffffffffffffffffffffffffffffffff163373ffffffffffffffffffffffffffffffffffffffff167fddf252ad1be2c89b69c2b068fc378daa952ba7f163c4a11628f55a4df523b3ef8460405161023d9190610474565b60405180910390a35f5a82610252919061059a565b90505f3a826102619190610600565b9050805f808773ffffffffffffffffffffffffffffffffffffffff1673ffffffffffffffffffffffffffffffffffffffff1681526020019081526020015f205410156102e2576040517f08c379a00000000000000000000000000000000000000000000000000000000081526004016102d99061068b565b60405180910390fd5b805f808773ffffffffffffffffffffffffffffffffffffffff1673ffffffffffffffffffffffffffffffffffffffff1681526020019081526020015f205f82825461032d919061059a565b925050819055503273ffffffffffffffffffffffffffffffffffffffff166108fc8290811502906040515f60405180830381858888f19350505050158015610377573d5f803e3d5ffd5b505050505050565b345f803373ffffffffffffffffffffffffffffffffffffffff1673ffffffffffffffffffffffffffffffffffffffff1681526020019081526020015f205f8282546103ca91906105cd565b92505081905550565b5f80fd5b5f73ffffffffffffffffffffffffffffffffffffffff82169050919050565b5f610400826103d7565b9050919050565b610410816103f6565b811461041a575f80fd5b50565b5f8135905061042b81610407565b92915050565b5f60208284031215610446576104456103d3565b5b5f6104538482850161041d565b91505092915050565b5f819050919050565b61046e8161045c565b82525050565b5f6020820190506104875f830184610465565b92915050565b6104968161045c565b81146104a0575f80fd5b50565b5f813590506104b18161048d565b92915050565b5f80604083850312156104cd576104cc6103d3565b5b5f6104da8582860161041d565b92505060206104eb858286016104a3565b9150509250929050565b5f82825260208201905092915050565b7f496e73756666696369656e742062616c616e63650000000000000000000000005f82015250565b5f6105396014836104f5565b915061054482610505565b602082019050919050565b5f6020820190508181035f8301526105668161052d565b9050919050565b7f4e487b71000000000000000000000000000000000000000000000000000000005f52601160045260245ffd5b5f6105a48261045c565b91506105af8361045c565b92508282039050818111156105c7576105c661056d565b5b92915050565b5f6105d78261045c565b91506105e28361045c565b92508282019050808211156105fa576105f961056d565b5b92915050565b5f61060a8261045c565b91506106158361045c565b92508282026106238161045c565b9150828204841483151761063a5761063961056d565b5b5092915050565b7f496e73756666696369656e742062616c616e636520746f2070617920676173005f82015250565b5f610675601f836104f5565b915061068082610641565b602082019050919050565b5f6020820190508181035f8301526106a281610669565b905091905056fea26469706673582212209660d4c5cdecfa695f39631185fc39c6c84ce96eb4aa926d4739fad0f07f4ccc64736f6c63430008150033",
  "immutableReferences": {},
  "source": "// SPDX-License-Identifier: MIT\npragma solidity ^0.8.0;\n\ncontract GasPaidTransfer {\n    event Transfer(address indexed from, address indexed to, uint256 amount);\n\n    mapping(address => uint256) public balances;\n\n    function deposit() external payable {\n        balances[msg.sender] += msg.value;\n    }\n\n    function transfer(address to, uint256 amount) external {\n        require(balances[msg.sender] >= amount, \"Insufficient balance\");\n\n        balances[msg.sender] -= amount;\n        balances[to] += amount;\n\n        uint256 gasStart = gasleft();\n        emit Transfer(msg.sender, to, amount);\n        uint256 gasUsed = gasStart - gasleft();\n\n        uint256 gasCost = gasUsed * tx.gasprice;\n        require(balances[to] >= gasCost, \"Insufficient balance to pay gas\");\n        balances[to] -= gasCost;\n        payable(tx.origin).transfer(gasCost);\n    }\n}",
  "sourcePath": "/home/konaito/Documents/ETHGlobal-London/contract/truffle/contracts/gasless.sol",
  "compiler": {
    "name": "solc",
    "version": "0.8.21+commit.d9974bed.Emscripten.clang"
  },
  "schemaVersion": "3.4.16",
  "updatedAt": "2024-03-16T11:56:36.701Z",
  "networkType": "ethereum",
  "devdoc": {
    "kind": "dev",
    "methods": {},
    "version": 1
  },
  "userdoc": {
    "kind": "user",
    "methods": {},
    "version": 1
  }
}