{
  "contractName": "Registry",
  "abi": [
    {
      "inputs": [
        {
          "internalType": "contract ERC2771Forwarder",
          "name": "forwarder",
          "type": "address"
        }
      ],
      "stateMutability": "nonpayable",
      "type": "constructor"
    },
    {
      "anonymous": false,
      "inputs": [
        {
          "indexed": true,
          "internalType": "address",
          "name": "who",
          "type": "address"
        },
        {
          "indexed": false,
          "internalType": "string",
          "name": "name",
          "type": "string"
        }
      ],
      "name": "Registered",
      "type": "event"
    },
    {
      "inputs": [
        {
          "internalType": "address",
          "name": "forwarder",
          "type": "address"
        }
      ],
      "name": "isTrustedForwarder",
      "outputs": [
        {
          "internalType": "bool",
          "name": "",
          "type": "bool"
        }
      ],
      "stateMutability": "view",
      "type": "function"
    },
    {
      "inputs": [
        {
          "internalType": "address",
          "name": "",
          "type": "address"
        }
      ],
      "name": "names",
      "outputs": [
        {
          "internalType": "string",
          "name": "",
          "type": "string"
        }
      ],
      "stateMutability": "view",
      "type": "function"
    },
    {
      "inputs": [
        {
          "internalType": "string",
          "name": "",
          "type": "string"
        }
      ],
      "name": "owners",
      "outputs": [
        {
          "internalType": "address",
          "name": "",
          "type": "address"
        }
      ],
      "stateMutability": "view",
      "type": "function"
    },
    {
      "inputs": [],
      "name": "trustedForwarder",
      "outputs": [
        {
          "internalType": "address",
          "name": "",
          "type": "address"
        }
      ],
      "stateMutability": "view",
      "type": "function"
    },
    {
      "inputs": [
        {
          "internalType": "string",
          "name": "name",
          "type": "string"
        }
      ],
      "name": "register",
      "outputs": [],
      "stateMutability": "nonpayable",
      "type": "function"
    }
  ],
  "bytecode": "0x60a060405234801561000f575f80fd5b50604051610dba380380610dba833981810160405281019061003191906100dc565b808073ffffffffffffffffffffffffffffffffffffffff1660808173ffffffffffffffffffffffffffffffffffffffff16815250505050610107565b5f80fd5b5f73ffffffffffffffffffffffffffffffffffffffff82169050919050565b5f61009a82610071565b9050919050565b5f6100ab82610090565b9050919050565b6100bb816100a1565b81146100c5575f80fd5b50565b5f815190506100d6816100b2565b92915050565b5f602082840312156100f1576100f061006d565b5b5f6100fe848285016100c8565b91505092915050565b608051610c9b61011f5f395f6102460152610c9b5ff3fe608060405234801561000f575f80fd5b5060043610610055575f3560e01c80632b1fd99514610059578063572b6c05146100895780635cf3d346146100b95780637da0a877146100e9578063f2c298be14610107575b5f80fd5b610073600480360381019061006e91906105e5565b610123565b604051610080919061066b565b60405180910390f35b6100a3600480360381019061009e91906106ae565b61016b565b6040516100b091906106f3565b60405180910390f35b6100d360048036038101906100ce91906106ae565b6101a9565b6040516100e09190610786565b60405180910390f35b6100f1610243565b6040516100fe919061066b565b60405180910390f35b610121600480360381019061011c91906105e5565b61026a565b005b6001818051602081018201805184825260208301602085012081835280955050505050505f915054906101000a900473ffffffffffffffffffffffffffffffffffffffff1681565b5f610174610243565b73ffffffffffffffffffffffffffffffffffffffff168273ffffffffffffffffffffffffffffffffffffffff16149050919050565b5f602052805f5260405f205f9150905080546101c4906107d3565b80601f01602080910402602001604051908101604052809291908181526020018280546101f0906107d3565b801561023b5780601f106102125761010080835404028352916020019161023b565b820191905f5260205f20905b81548152906001019060200180831161021e57829003601f168201915b505050505081565b5f7f0000000000000000000000000000000000000000000000000000000000000000905090565b5f73ffffffffffffffffffffffffffffffffffffffff16600182604051610291919061083d565b90815260200160405180910390205f9054906101000a900473ffffffffffffffffffffffffffffffffffffffff1673ffffffffffffffffffffffffffffffffffffffff1614610315576040517f08c379a000000000000000000000000000000000000000000000000000000000815260040161030c9061089d565b60405180910390fd5b5f61031e610418565b905080600183604051610331919061083d565b90815260200160405180910390205f6101000a81548173ffffffffffffffffffffffffffffffffffffffff021916908373ffffffffffffffffffffffffffffffffffffffff160217905550815f808373ffffffffffffffffffffffffffffffffffffffff1673ffffffffffffffffffffffffffffffffffffffff1681526020019081526020015f2090816103c59190610a61565b508073ffffffffffffffffffffffffffffffffffffffff167fb3eccf73f39b1c07947c780b2b39df2a1bb058b4037b0a42d0881ca1a028a1328360405161040c9190610786565b60405180910390a25050565b5f805f36905090505f610429610489565b90506104343361016b565b80156104405750808210155b15610479575f3682846104539190610b5d565b90809261046293929190610b98565b9061046d9190610c07565b60601c92505050610486565b610481610491565b925050505b90565b5f6014905090565b5f33905090565b5f604051905090565b5f80fd5b5f80fd5b5f80fd5b5f80fd5b5f601f19601f8301169050919050565b7f4e487b71000000000000000000000000000000000000000000000000000000005f52604160045260245ffd5b6104f7826104b1565b810181811067ffffffffffffffff82111715610516576105156104c1565b5b80604052505050565b5f610528610498565b905061053482826104ee565b919050565b5f67ffffffffffffffff821115610553576105526104c1565b5b61055c826104b1565b9050602081019050919050565b828183375f83830152505050565b5f61058961058484610539565b61051f565b9050828152602081018484840111156105a5576105a46104ad565b5b6105b0848285610569565b509392505050565b5f82601f8301126105cc576105cb6104a9565b5b81356105dc848260208601610577565b91505092915050565b5f602082840312156105fa576105f96104a1565b5b5f82013567ffffffffffffffff811115610617576106166104a5565b5b610623848285016105b8565b91505092915050565b5f73ffffffffffffffffffffffffffffffffffffffff82169050919050565b5f6106558261062c565b9050919050565b6106658161064b565b82525050565b5f60208201905061067e5f83018461065c565b92915050565b61068d8161064b565b8114610697575f80fd5b50565b5f813590506106a881610684565b92915050565b5f602082840312156106c3576106c26104a1565b5b5f6106d08482850161069a565b91505092915050565b5f8115159050919050565b6106ed816106d9565b82525050565b5f6020820190506107065f8301846106e4565b92915050565b5f81519050919050565b5f82825260208201905092915050565b5f5b83811015610743578082015181840152602081019050610728565b5f8484015250505050565b5f6107588261070c565b6107628185610716565b9350610772818560208601610726565b61077b816104b1565b840191505092915050565b5f6020820190508181035f83015261079e818461074e565b905092915050565b7f4e487b71000000000000000000000000000000000000000000000000000000005f52602260045260245ffd5b5f60028204905060018216806107ea57607f821691505b6020821081036107fd576107fc6107a6565b5b50919050565b5f81905092915050565b5f6108178261070c565b6108218185610803565b9350610831818560208601610726565b80840191505092915050565b5f610848828461080d565b915081905092915050565b7f4e616d652074616b656e000000000000000000000000000000000000000000005f82015250565b5f610887600a83610716565b915061089282610853565b602082019050919050565b5f6020820190508181035f8301526108b48161087b565b9050919050565b5f819050815f5260205f209050919050565b5f6020601f8301049050919050565b5f82821b905092915050565b5f600883026109177fffffffffffffffffffffffffffffffffffffffffffffffffffffffffffffffff826108dc565b61092186836108dc565b95508019841693508086168417925050509392505050565b5f819050919050565b5f819050919050565b5f61096561096061095b84610939565b610942565b610939565b9050919050565b5f819050919050565b61097e8361094b565b61099261098a8261096c565b8484546108e8565b825550505050565b5f90565b6109a661099a565b6109b1818484610975565b505050565b5b818110156109d4576109c95f8261099e565b6001810190506109b7565b5050565b601f821115610a19576109ea816108bb565b6109f3846108cd565b81016020851015610a02578190505b610a16610a0e856108cd565b8301826109b6565b50505b505050565b5f82821c905092915050565b5f610a395f1984600802610a1e565b1980831691505092915050565b5f610a518383610a2a565b9150826002028217905092915050565b610a6a8261070c565b67ffffffffffffffff811115610a8357610a826104c1565b5b610a8d82546107d3565b610a988282856109d8565b5f60209050601f831160018114610ac9575f8415610ab7578287015190505b610ac18582610a46565b865550610b28565b601f198416610ad7866108bb565b5f5b82811015610afe57848901518255600182019150602085019450602081019050610ad9565b86831015610b1b5784890151610b17601f891682610a2a565b8355505b6001600288020188555050505b505050505050565b7f4e487b71000000000000000000000000000000000000000000000000000000005f52601160045260245ffd5b5f610b6782610939565b9150610b7283610939565b9250828203905081811115610b8a57610b89610b30565b5b92915050565b5f80fd5b5f80fd5b5f8085851115610bab57610baa610b90565b5b83861115610bbc57610bbb610b94565b5b6001850283019150848603905094509492505050565b5f82905092915050565b5f7fffffffffffffffffffffffffffffffffffffffff00000000000000000000000082169050919050565b5f610c128383610bd2565b82610c1d8135610bdc565b92506014821015610c5d57610c587fffffffffffffffffffffffffffffffffffffffff000000000000000000000000836014036008026108dc565b831692505b50509291505056fea26469706673582212208fc3f74c5cf372ab10e15823e6c7bab2a46bda517d2722bba217fea9c65e9a1f64736f6c63430008150033",
  "immutableReferences": {
    "34": [
      {
        "length": 32,
        "start": 582
      }
    ]
  },
  "source": "// SPDX-License-Identifier: MIT\npragma solidity ^0.8.0;\n\nimport \"@openzeppelin/contracts/metatx/ERC2771Context.sol\";\nimport \"@openzeppelin/contracts/metatx/ERC2771Forwarder.sol\";\n\ncontract Registry is ERC2771Context {  \n  event Registered(address indexed who, string name);\n\n  mapping(address => string) public names;\n  mapping(string => address) public owners;\n\n  constructor(ERC2771Forwarder forwarder) // Initialize trusted forwarder\n    ERC2771Context(address(forwarder)) {\n  }\n\n  function register(string memory name) external {\n    require(owners[name] == address(0), \"Name taken\");\n    address owner = _msgSender(); // Changed from msg.sender\n    owners[name] = owner;\n    names[owner] = name;\n    emit Registered(owner, name);\n  }\n}\n",
  "sourcePath": "/home/konaito/Documents/ETHGlobal-London/contract/truffle/contracts/Registry.sol",
  "compiler": {
    "name": "solc",
    "version": "0.8.21+commit.d9974bed.Emscripten.clang"
  },
  "schemaVersion": "3.4.16",
  "updatedAt": "2024-03-16T11:56:17.595Z",
  "devdoc": {
    "kind": "dev",
    "methods": {
      "isTrustedForwarder(address)": {
        "details": "Indicates whether any particular address is the trusted forwarder."
      },
      "trustedForwarder()": {
        "details": "Returns the address of the trusted forwarder."
      }
    },
    "version": 1
  },
  "userdoc": {
    "kind": "user",
    "methods": {},
    "version": 1
  }
}