{
  "contractName": "RateRecorder",
  "abi": [
    {
      "inputs": [],
      "stateMutability": "nonpayable",
      "type": "constructor"
    },
    {
      "inputs": [],
      "name": "wldEthRate",
      "outputs": [
        {
          "internalType": "uint256",
          "name": "",
          "type": "uint256"
        }
      ],
      "stateMutability": "view",
      "type": "function",
      "constant": true
    },
    {
      "inputs": [],
      "name": "updateWldEthRate",
      "outputs": [],
      "stateMutability": "nonpayable",
      "type": "function"
    },
    {
      "inputs": [],
      "name": "updateAndGetWldEthRate",
      "outputs": [
        {
          "internalType": "uint256",
          "name": "",
          "type": "uint256"
        }
      ],
      "stateMutability": "nonpayable",
      "type": "function"
    }
  ],
  "bytecode": "0x608060405234801561000f575f80fd5b5073c3d7ba4234995543188278e51837f1c27b89e3315f806101000a81548173ffffffffffffffffffffffffffffffffffffffff021916908373ffffffffffffffffffffffffffffffffffffffff1602179055507361ec26aa57019c486b10502285c5a3d4a4750ad760015f6101000a81548173ffffffffffffffffffffffffffffffffffffffff021916908373ffffffffffffffffffffffffffffffffffffffff1602179055505f6002819055506103e8806100cb5f395ff3fe608060405234801561000f575f80fd5b506004361061003f575f3560e01c806329fb52c514610043578063652f79191461004d578063ab4368711461006b575b5f80fd5b61004b610089565b005b61005561010a565b60405161006291906101b7565b60405180910390f35b610073610110565b60405161008091906101b7565b60405180910390f35b5f6100b25f8054906101000a900473ffffffffffffffffffffffffffffffffffffffff16610121565b90505f6100df60015f9054906101000a900473ffffffffffffffffffffffffffffffffffffffff16610121565b905080670de0b6b3a7640000836100f691906101fd565b610100919061026b565b6002819055505050565b60025481565b5f610119610089565b600254905090565b5f808273ffffffffffffffffffffffffffffffffffffffff1663feaf968c6040518163ffffffff1660e01b815260040160a060405180830381865afa15801561016c573d5f803e3d5ffd5b505050506040513d601f19601f82011682018060405250810190610190919061033b565b50505091505080915050919050565b5f819050919050565b6101b18161019f565b82525050565b5f6020820190506101ca5f8301846101a8565b92915050565b7f4e487b71000000000000000000000000000000000000000000000000000000005f52601160045260245ffd5b5f6102078261019f565b91506102128361019f565b92508282026102208161019f565b91508282048414831517610237576102366101d0565b5b5092915050565b7f4e487b71000000000000000000000000000000000000000000000000000000005f52601260045260245ffd5b5f6102758261019f565b91506102808361019f565b9250826102905761028f61023e565b5b828204905092915050565b5f80fd5b5f69ffffffffffffffffffff82169050919050565b6102bd8161029f565b81146102c7575f80fd5b50565b5f815190506102d8816102b4565b92915050565b5f819050919050565b6102f0816102de565b81146102fa575f80fd5b50565b5f8151905061030b816102e7565b92915050565b61031a8161019f565b8114610324575f80fd5b50565b5f8151905061033581610311565b92915050565b5f805f805f60a086880312156103545761035361029b565b5b5f610361888289016102ca565b9550506020610372888289016102fd565b945050604061038388828901610327565b935050606061039488828901610327565b92505060806103a5888289016102ca565b915050929550929590935056fea26469706673582212204acc1a799a52001e288852f42d320671870a217689f89d90775bb89ae94a3b0d64736f6c63430008150033",
  "immutableReferences": {},
  "source": "// SPDX-License-Identifier: MIT\npragma solidity ^0.8.0;\n\nimport \"@chainlink/contracts/src/v0.8/interfaces/AggregatorV3Interface.sol\";\n\ncontract RateRecorder {\n    AggregatorV3Interface internal wldUsdPriceFeed;\n    AggregatorV3Interface internal ethUsdPriceFeed;\n\n    uint256 public wldEthRate; // WLDETH\n\n    constructor() {\n        wldUsdPriceFeed = AggregatorV3Interface(0xC3D7ba4234995543188278E51837F1C27b89E331);\n        ethUsdPriceFeed = AggregatorV3Interface(0x61Ec26aA57019C486B10502285c5A3D4A4750AD7);\n        wldEthRate = 0; // 0\n    }\n\n    // WLDETH\n    function updateWldEthRate() public {\n        int wldUsdPrice = getLatestPrice(wldUsdPriceFeed);\n        int ethUsdPrice = getLatestPrice(ethUsdPriceFeed);\n\n        // \n        wldEthRate = (uint256(wldUsdPrice) * 1e18) / uint256(ethUsdPrice);\n    }\n\n    // \n    function getLatestPrice(AggregatorV3Interface priceFeed) private view returns (int) {\n        (,int price,,,) = priceFeed.latestRoundData();\n        return price;\n    }\n\n    // WLDETH\n    function updateAndGetWldEthRate() public returns (uint256) {\n        updateWldEthRate(); // \n        return wldEthRate; // \n    }\n}\n",
  "sourcePath": "/home/konaito/Documents/ETHGlobal-London/contract/truffle/contracts/RateRecorder.sol",
  "compiler": {
    "name": "solc",
    "version": "0.8.21+commit.d9974bed.Emscripten.clang"
  },
  "schemaVersion": "3.4.16",
  "updatedAt": "2024-03-16T16:39:06.577Z",
  "networkType": "ethereum",
  "devdoc": {
    "kind": "dev",
    "methods": {},
    "version": 1
  },
  "userdoc": {
    "kind": "user",
    "methods": {},
    "version": 1
  }
}