{
  "contractName": "SimpleRegistry",
  "abi": [
    {
      "anonymous": false,
      "inputs": [
        {
          "indexed": true,
          "internalType": "address",
          "name": "who",
          "type": "address"
        },
        {
          "indexed": false,
          "internalType": "string",
          "name": "name",
          "type": "string"
        }
      ],
      "name": "Registered",
      "type": "event"
    },
    {
      "inputs": [
        {
          "internalType": "address",
          "name": "",
          "type": "address"
        }
      ],
      "name": "names",
      "outputs": [
        {
          "internalType": "string",
          "name": "",
          "type": "string"
        }
      ],
      "stateMutability": "view",
      "type": "function"
    },
    {
      "inputs": [
        {
          "internalType": "string",
          "name": "",
          "type": "string"
        }
      ],
      "name": "owners",
      "outputs": [
        {
          "internalType": "address",
          "name": "",
          "type": "address"
        }
      ],
      "stateMutability": "view",
      "type": "function"
    },
    {
      "inputs": [
        {
          "internalType": "string",
          "name": "name",
          "type": "string"
        }
      ],
      "name": "register",
      "outputs": [],
      "stateMutability": "nonpayable",
      "type": "function"
    }
  ],
  "bytecode": "0x608060405234801561000f575f80fd5b506109e38061001d5f395ff3fe608060405234801561000f575f80fd5b506004361061003f575f3560e01c80632b1fd995146100435780635cf3d34614610073578063f2c298be146100a3575b5f80fd5b61005d60048036038101906100589190610495565b6100bf565b60405161006a919061051b565b60405180910390f35b61008d6004803603810190610088919061055e565b610107565b60405161009a9190610603565b60405180910390f35b6100bd60048036038101906100b89190610495565b6101a1565b005b6001818051602081018201805184825260208301602085012081835280955050505050505f915054906101000a900473ffffffffffffffffffffffffffffffffffffffff1681565b5f602052805f5260405f205f91509050805461012290610650565b80601f016020809104026020016040519081016040528092919081815260200182805461014e90610650565b80156101995780601f1061017057610100808354040283529160200191610199565b820191905f5260205f20905b81548152906001019060200180831161017c57829003601f168201915b505050505081565b5f73ffffffffffffffffffffffffffffffffffffffff166001826040516101c891906106ba565b90815260200160405180910390205f9054906101000a900473ffffffffffffffffffffffffffffffffffffffff1673ffffffffffffffffffffffffffffffffffffffff161461024c576040517f08c379a00000000000000000000000000000000000000000000000000000000081526004016102439061071a565b60405180910390fd5b5f3390508060018360405161026191906106ba565b90815260200160405180910390205f6101000a81548173ffffffffffffffffffffffffffffffffffffffff021916908373ffffffffffffffffffffffffffffffffffffffff160217905550815f808373ffffffffffffffffffffffffffffffffffffffff1673ffffffffffffffffffffffffffffffffffffffff1681526020019081526020015f2090816102f591906108de565b508073ffffffffffffffffffffffffffffffffffffffff167fb3eccf73f39b1c07947c780b2b39df2a1bb058b4037b0a42d0881ca1a028a1328360405161033c9190610603565b60405180910390a25050565b5f604051905090565b5f80fd5b5f80fd5b5f80fd5b5f80fd5b5f601f19601f8301169050919050565b7f4e487b71000000000000000000000000000000000000000000000000000000005f52604160045260245ffd5b6103a782610361565b810181811067ffffffffffffffff821117156103c6576103c5610371565b5b80604052505050565b5f6103d8610348565b90506103e4828261039e565b919050565b5f67ffffffffffffffff82111561040357610402610371565b5b61040c82610361565b9050602081019050919050565b828183375f83830152505050565b5f610439610434846103e9565b6103cf565b9050828152602081018484840111156104555761045461035d565b5b610460848285610419565b509392505050565b5f82601f83011261047c5761047b610359565b5b813561048c848260208601610427565b91505092915050565b5f602082840312156104aa576104a9610351565b5b5f82013567ffffffffffffffff8111156104c7576104c6610355565b5b6104d384828501610468565b91505092915050565b5f73ffffffffffffffffffffffffffffffffffffffff82169050919050565b5f610505826104dc565b9050919050565b610515816104fb565b82525050565b5f60208201905061052e5f83018461050c565b92915050565b61053d816104fb565b8114610547575f80fd5b50565b5f8135905061055881610534565b92915050565b5f6020828403121561057357610572610351565b5b5f6105808482850161054a565b91505092915050565b5f81519050919050565b5f82825260208201905092915050565b5f5b838110156105c05780820151818401526020810190506105a5565b5f8484015250505050565b5f6105d582610589565b6105df8185610593565b93506105ef8185602086016105a3565b6105f881610361565b840191505092915050565b5f6020820190508181035f83015261061b81846105cb565b905092915050565b7f4e487b71000000000000000000000000000000000000000000000000000000005f52602260045260245ffd5b5f600282049050600182168061066757607f821691505b60208210810361067a57610679610623565b5b50919050565b5f81905092915050565b5f61069482610589565b61069e8185610680565b93506106ae8185602086016105a3565b80840191505092915050565b5f6106c5828461068a565b915081905092915050565b7f4e616d652074616b656e000000000000000000000000000000000000000000005f82015250565b5f610704600a83610593565b915061070f826106d0565b602082019050919050565b5f6020820190508181035f830152610731816106f8565b9050919050565b5f819050815f5260205f209050919050565b5f6020601f8301049050919050565b5f82821b905092915050565b5f600883026107947fffffffffffffffffffffffffffffffffffffffffffffffffffffffffffffffff82610759565b61079e8683610759565b95508019841693508086168417925050509392505050565b5f819050919050565b5f819050919050565b5f6107e26107dd6107d8846107b6565b6107bf565b6107b6565b9050919050565b5f819050919050565b6107fb836107c8565b61080f610807826107e9565b848454610765565b825550505050565b5f90565b610823610817565b61082e8184846107f2565b505050565b5b81811015610851576108465f8261081b565b600181019050610834565b5050565b601f8211156108965761086781610738565b6108708461074a565b8101602085101561087f578190505b61089361088b8561074a565b830182610833565b50505b505050565b5f82821c905092915050565b5f6108b65f198460080261089b565b1980831691505092915050565b5f6108ce83836108a7565b9150826002028217905092915050565b6108e782610589565b67ffffffffffffffff811115610900576108ff610371565b5b61090a8254610650565b610915828285610855565b5f60209050601f831160018114610946575f8415610934578287015190505b61093e85826108c3565b8655506109a5565b601f19841661095486610738565b5f5b8281101561097b57848901518255600182019150602085019450602081019050610956565b868310156109985784890151610994601f8916826108a7565b8355505b6001600288020188555050505b50505050505056fea264697066735822122017f9cfdaf9a28543cc035542bcfc329d1a7e0b04025f5ea2d99a467d3b2c522364736f6c63430008150033",
  "immutableReferences": {},
  "source": "// SPDX-License-Identifier: MIT\npragma solidity ^0.8.0;\n\ncontract SimpleRegistry {  \n  event Registered(address indexed who, string name);\n\n  mapping(address => string) public names;\n  mapping(string => address) public owners;\n\n  function register(string memory name) external {\n    require(owners[name] == address(0), \"Name taken\");\n    address owner = msg.sender;\n    owners[name] = owner;\n    names[owner] = name;\n    emit Registered(owner, name);\n  }\n}\n",
  "sourcePath": "/home/konaito/Documents/ETHGlobal-London/contract/truffle/contracts/SimpleRegistry.sol",
  "compiler": {
    "name": "solc",
    "version": "0.8.21+commit.d9974bed.Emscripten.clang"
  },
  "schemaVersion": "3.4.16",
  "updatedAt": "2024-03-16T11:56:17.603Z",
  "devdoc": {
    "kind": "dev",
    "methods": {},
    "version": 1
  },
  "userdoc": {
    "kind": "user",
    "methods": {},
    "version": 1
  }
}