{
  "contractName": "TokenSwap",
  "abi": [
    {
      "inputs": [
        {
          "internalType": "address",
          "name": "_wldTokenAddress",
          "type": "address"
        },
        {
          "internalType": "address",
          "name": "_wldUsdPriceFeedAddress",
          "type": "address"
        },
        {
          "internalType": "address",
          "name": "_ethUsdPriceFeedAddress",
          "type": "address"
        }
      ],
      "stateMutability": "nonpayable",
      "type": "constructor"
    },
    {
      "inputs": [],
      "name": "owner",
      "outputs": [
        {
          "internalType": "address payable",
          "name": "",
          "type": "address"
        }
      ],
      "stateMutability": "view",
      "type": "function"
    },
    {
      "inputs": [],
      "name": "wldToken",
      "outputs": [
        {
          "internalType": "contract IERC20",
          "name": "",
          "type": "address"
        }
      ],
      "stateMutability": "view",
      "type": "function"
    },
    {
      "stateMutability": "payable",
      "type": "receive"
    },
    {
      "inputs": [
        {
          "internalType": "uint256",
          "name": "wldAmount",
          "type": "uint256"
        }
      ],
      "name": "swapWldToEth",
      "outputs": [],
      "stateMutability": "nonpayable",
      "type": "function"
    },
    {
      "inputs": [],
      "name": "withdrawEth",
      "outputs": [],
      "stateMutability": "nonpayable",
      "type": "function"
    }
  ],
  "bytecode": "0x608060405234801561000f575f80fd5b50604051610d8e380380610d8e83398181016040528101906100319190610196565b3360035f6101000a81548173ffffffffffffffffffffffffffffffffffffffff021916908373ffffffffffffffffffffffffffffffffffffffff1602179055508260025f6101000a81548173ffffffffffffffffffffffffffffffffffffffff021916908373ffffffffffffffffffffffffffffffffffffffff160217905550815f806101000a81548173ffffffffffffffffffffffffffffffffffffffff021916908373ffffffffffffffffffffffffffffffffffffffff1602179055508060015f6101000a81548173ffffffffffffffffffffffffffffffffffffffff021916908373ffffffffffffffffffffffffffffffffffffffff1602179055505050506101e6565b5f80fd5b5f73ffffffffffffffffffffffffffffffffffffffff82169050919050565b5f6101658261013c565b9050919050565b6101758161015b565b811461017f575f80fd5b50565b5f815190506101908161016c565b92915050565b5f805f606084860312156101ad576101ac610138565b5b5f6101ba86828701610182565b93505060206101cb86828701610182565b92505060406101dc86828701610182565b9150509250925092565b610b9b806101f35f395ff3fe608060405260043610610042575f3560e01c80638da5cb5b1461004d5780639be3783d14610077578063a0ef91df146100a1578063e16b287b146100b757610049565b3661004957005b5f80fd5b348015610058575f80fd5b506100616100df565b60405161006e91906105b5565b60405180910390f35b348015610082575f80fd5b5061008b610104565b6040516100989190610629565b60405180910390f35b3480156100ac575f80fd5b506100b5610129565b005b3480156100c2575f80fd5b506100dd60048036038101906100d89190610679565b61021f565b005b60035f9054906101000a900473ffffffffffffffffffffffffffffffffffffffff1681565b60025f9054906101000a900473ffffffffffffffffffffffffffffffffffffffff1681565b60035f9054906101000a900473ffffffffffffffffffffffffffffffffffffffff1673ffffffffffffffffffffffffffffffffffffffff163373ffffffffffffffffffffffffffffffffffffffff16146101b8576040517f08c379a00000000000000000000000000000000000000000000000000000000081526004016101af906106fe565b60405180910390fd5b60035f9054906101000a900473ffffffffffffffffffffffffffffffffffffffff1673ffffffffffffffffffffffffffffffffffffffff166108fc4790811502906040515f60405180830381858888f1935050505015801561021c573d5f803e3d5ffd5b50565b8060025f9054906101000a900473ffffffffffffffffffffffffffffffffffffffff1673ffffffffffffffffffffffffffffffffffffffff166370a08231336040518263ffffffff1660e01b815260040161027a919061073c565b602060405180830381865afa158015610295573d5f803e3d5ffd5b505050506040513d601f19601f820116820180604052508101906102b99190610769565b10156102fa576040517f08c379a00000000000000000000000000000000000000000000000000000000081526004016102f1906107de565b60405180910390fd5b5f6103235f8054906101000a900473ffffffffffffffffffffffffffffffffffffffff166104f8565b90505f61035060015f9054906101000a900473ffffffffffffffffffffffffffffffffffffffff166104f8565b90505f8184846103609190610829565b61036a9190610897565b905060025f9054906101000a900473ffffffffffffffffffffffffffffffffffffffff1673ffffffffffffffffffffffffffffffffffffffff166323b872dd3330876040518463ffffffff1660e01b81526004016103ca939291906108d6565b6020604051808303815f875af11580156103e6573d5f803e3d5ffd5b505050506040513d601f19601f8201168201806040525081019061040a9190610940565b610449576040517f08c379a0000000000000000000000000000000000000000000000000000000008152600401610440906109b5565b60405180910390fd5b5f3373ffffffffffffffffffffffffffffffffffffffff168260405161046e90610a00565b5f6040518083038185875af1925050503d805f81146104a8576040519150601f19603f3d011682016040523d82523d5f602084013e6104ad565b606091505b50509050806104f1576040517f08c379a00000000000000000000000000000000000000000000000000000000081526004016104e890610a5e565b60405180910390fd5b5050505050565b5f808273ffffffffffffffffffffffffffffffffffffffff1663feaf968c6040518163ffffffff1660e01b815260040160a060405180830381865afa158015610543573d5f803e3d5ffd5b505050506040513d601f19601f820116820180604052508101906105679190610aee565b50505091505080915050919050565b5f73ffffffffffffffffffffffffffffffffffffffff82169050919050565b5f61059f82610576565b9050919050565b6105af81610595565b82525050565b5f6020820190506105c85f8301846105a6565b92915050565b5f819050919050565b5f6105f16105ec6105e784610576565b6105ce565b610576565b9050919050565b5f610602826105d7565b9050919050565b5f610613826105f8565b9050919050565b61062381610609565b82525050565b5f60208201905061063c5f83018461061a565b92915050565b5f80fd5b5f819050919050565b61065881610646565b8114610662575f80fd5b50565b5f813590506106738161064f565b92915050565b5f6020828403121561068e5761068d610642565b5b5f61069b84828501610665565b91505092915050565b5f82825260208201905092915050565b7f4f6e6c7920746865206f776e65722063616e20776974686472617700000000005f82015250565b5f6106e8601b836106a4565b91506106f3826106b4565b602082019050919050565b5f6020820190508181035f830152610715816106dc565b9050919050565b5f61072682610576565b9050919050565b6107368161071c565b82525050565b5f60208201905061074f5f83018461072d565b92915050565b5f815190506107638161064f565b92915050565b5f6020828403121561077e5761077d610642565b5b5f61078b84828501610755565b91505092915050565b7f496e73756666696369656e7420574c442062616c616e636500000000000000005f82015250565b5f6107c86018836106a4565b91506107d382610794565b602082019050919050565b5f6020820190508181035f8301526107f5816107bc565b9050919050565b7f4e487b71000000000000000000000000000000000000000000000000000000005f52601160045260245ffd5b5f61083382610646565b915061083e83610646565b925082820261084c81610646565b91508282048414831517610863576108626107fc565b5b5092915050565b7f4e487b71000000000000000000000000000000000000000000000000000000005f52601260045260245ffd5b5f6108a182610646565b91506108ac83610646565b9250826108bc576108bb61086a565b5b828204905092915050565b6108d081610646565b82525050565b5f6060820190506108e95f83018661072d565b6108f6602083018561072d565b61090360408301846108c7565b949350505050565b5f8115159050919050565b61091f8161090b565b8114610929575f80fd5b50565b5f8151905061093a81610916565b92915050565b5f6020828403121561095557610954610642565b5b5f6109628482850161092c565b91505092915050565b7f574c44207472616e73666572206661696c6564000000000000000000000000005f82015250565b5f61099f6013836106a4565b91506109aa8261096b565b602082019050919050565b5f6020820190508181035f8301526109cc81610993565b9050919050565b5f81905092915050565b50565b5f6109eb5f836109d3565b91506109f6826109dd565b5f82019050919050565b5f610a0a826109e0565b9150819050919050565b7f4661696c656420746f2073656e642045544800000000000000000000000000005f82015250565b5f610a486012836106a4565b9150610a5382610a14565b602082019050919050565b5f6020820190508181035f830152610a7581610a3c565b9050919050565b5f69ffffffffffffffffffff82169050919050565b610a9a81610a7c565b8114610aa4575f80fd5b50565b5f81519050610ab581610a91565b92915050565b5f819050919050565b610acd81610abb565b8114610ad7575f80fd5b50565b5f81519050610ae881610ac4565b92915050565b5f805f805f60a08688031215610b0757610b06610642565b5b5f610b1488828901610aa7565b9550506020610b2588828901610ada565b9450506040610b3688828901610755565b9350506060610b4788828901610755565b9250506080610b5888828901610aa7565b915050929550929590935056fea264697066735822122034ed46dc5707e580281929c96687cba41f64e7c63f38f5e67f4b8369e4a0694564736f6c63430008150033",
  "immutableReferences": {},
  "source": "// SPDX-License-Identifier: MIT\npragma solidity ^0.8.0;\n\nimport \"@chainlink/contracts/src/v0.8/interfaces/AggregatorV3Interface.sol\";\nimport \"@openzeppelin/contracts/token/ERC20/IERC20.sol\";\n\ncontract TokenSwap {\n    AggregatorV3Interface internal wldUsdPriceFeed;\n    AggregatorV3Interface internal ethUsdPriceFeed;\n    IERC20 public wldToken;\n\n    address payable public owner;\n    address private constant ethPoolAddress = 0xC8fa881b898FA1177c0E7e615AabE61dbBc84508;\n\n    constructor(address _wldTokenAddress, address _wldUsdPriceFeedAddress, address _ethUsdPriceFeedAddress) {\n        owner = payable(msg.sender);\n        wldToken = IERC20(_wldTokenAddress);\n        wldUsdPriceFeed = AggregatorV3Interface(_wldUsdPriceFeedAddress);\n        ethUsdPriceFeed = AggregatorV3Interface(_ethUsdPriceFeedAddress);\n    }\n\n    function getLatestPrice(AggregatorV3Interface priceFeed) private view returns (int) {\n        (,int price,,,) = priceFeed.latestRoundData();\n        return price;\n    }\n\n    function swapWldToEth(uint256 wldAmount) public {\n        require(wldToken.balanceOf(msg.sender) >= wldAmount, \"Insufficient WLD balance\");\n        \n        // WLDETHUSD\n        int wldUsdPrice = getLatestPrice(wldUsdPriceFeed);\n        int ethUsdPrice = getLatestPrice(ethUsdPriceFeed);\n\n        // ETH\n        uint256 ethAmount = (uint256(wldUsdPrice) * wldAmount) / uint256(ethUsdPrice);\n\n        // WLD\n        require(wldToken.transferFrom(msg.sender, address(this), wldAmount), \"WLD transfer failed\");\n\n        // ETH\n        (bool sent, ) = msg.sender.call{value: ethAmount}(\"\");\n        require(sent, \"Failed to send ETH\");\n\n        // \n    }\n\n    // ETH\n    receive() external payable {}\n\n    // ETH\n    function withdrawEth() public {\n        require(msg.sender == owner, \"Only the owner can withdraw\");\n        owner.transfer(address(this).balance);\n    }\n}\n",
  "sourcePath": "/home/konaito/Documents/ETHGlobal-London/contract/truffle/contracts/Swapper.sol",
  "compiler": {
    "name": "solc",
    "version": "0.8.21+commit.d9974bed.Emscripten.clang"
  },
  "schemaVersion": "3.4.16",
  "updatedAt": "2024-03-16T15:25:13.058Z",
  "devdoc": {
    "kind": "dev",
    "methods": {},
    "version": 1
  },
  "userdoc": {
    "kind": "user",
    "methods": {},
    "version": 1
  }
}